{
  "contractName": "Doctor",
  "abi": [
    {
      "inputs": [
        {
          "internalType": "address",
          "name": "_hospitalContractAddress",
          "type": "address"
        }
      ],
      "stateMutability": "nonpayable",
      "type": "constructor"
    },
    {
      "anonymous": false,
      "inputs": [
        {
          "indexed": true,
          "internalType": "uint256",
          "name": "doctorId",
          "type": "uint256"
        },
        {
          "indexed": false,
          "internalType": "string",
          "name": "name",
          "type": "string"
        },
        {
          "indexed": true,
          "internalType": "uint256",
          "name": "hospitalId",
          "type": "uint256"
        },
        {
          "indexed": false,
          "internalType": "address",
          "name": "wallet",
          "type": "address"
        }
      ],
      "name": "DoctorRegistered",
      "type": "event"
    },
    {
      "inputs": [],
      "name": "doctorCount",
      "outputs": [
        {
          "internalType": "uint256",
          "name": "",
          "type": "uint256"
        }
      ],
      "stateMutability": "view",
      "type": "function",
      "constant": true
    },
    {
      "inputs": [],
      "name": "hospitalContract",
      "outputs": [
        {
          "internalType": "contract IHospitalContract",
          "name": "",
          "type": "address"
        }
      ],
      "stateMutability": "view",
      "type": "function",
      "constant": true
    },
    {
      "inputs": [
        {
          "internalType": "uint256",
          "name": "_doctorId",
          "type": "uint256"
        },
        {
          "internalType": "string",
          "name": "_name",
          "type": "string"
        },
        {
          "internalType": "string",
          "name": "_specialisation",
          "type": "string"
        },
        {
          "internalType": "string",
          "name": "_phone",
          "type": "string"
        },
        {
          "internalType": "string",
          "name": "_doctorAddress",
          "type": "string"
        },
        {
          "internalType": "uint256",
          "name": "_hospitalId",
          "type": "uint256"
        },
        {
          "internalType": "address",
          "name": "_doctorWallet",
          "type": "address"
        }
      ],
      "name": "registerDoctor",
      "outputs": [],
      "stateMutability": "nonpayable",
      "type": "function"
    },
    {
      "inputs": [
        {
          "internalType": "uint256",
          "name": "_doctorId",
          "type": "uint256"
        }
      ],
      "name": "getDoctorDetails",
      "outputs": [
        {
          "internalType": "uint256",
          "name": "doctorId",
          "type": "uint256"
        },
        {
          "internalType": "string",
          "name": "name",
          "type": "string"
        },
        {
          "internalType": "string",
          "name": "specialisation",
          "type": "string"
        },
        {
          "internalType": "string",
          "name": "phone",
          "type": "string"
        },
        {
          "internalType": "string",
          "name": "doctorAddress",
          "type": "string"
        },
        {
          "internalType": "uint256",
          "name": "hospitalId",
          "type": "uint256"
        },
        {
          "internalType": "address",
          "name": "wallet",
          "type": "address"
        },
        {
          "internalType": "bool",
          "name": "exists",
          "type": "bool"
        }
      ],
      "stateMutability": "view",
      "type": "function",
      "constant": true
    },
    {
      "inputs": [
        {
          "internalType": "uint256",
          "name": "_hospitalId",
          "type": "uint256"
        }
      ],
      "name": "getDoctorsByHospital",
      "outputs": [
        {
          "components": [
            {
              "internalType": "uint256",
              "name": "doctorId",
              "type": "uint256"
            },
            {
              "internalType": "string",
              "name": "name",
              "type": "string"
            },
            {
              "internalType": "string",
              "name": "specialisation",
              "type": "string"
            },
            {
              "internalType": "string",
              "name": "phone",
              "type": "string"
            },
            {
              "internalType": "string",
              "name": "doctorAddress",
              "type": "string"
            },
            {
              "internalType": "uint256",
              "name": "hospitalId",
              "type": "uint256"
            },
            {
              "internalType": "address",
              "name": "wallet",
              "type": "address"
            },
            {
              "internalType": "bool",
              "name": "exists",
              "type": "bool"
            }
          ],
          "internalType": "struct Doctor.DoctorInfo[]",
          "name": "",
          "type": "tuple[]"
        }
      ],
      "stateMutability": "view",
      "type": "function",
      "constant": true
    },
    {
      "inputs": [
        {
          "internalType": "address",
          "name": "_wallet",
          "type": "address"
        }
      ],
      "name": "getDoctorIdByWallet",
      "outputs": [
        {
          "internalType": "uint256",
          "name": "",
          "type": "uint256"
        }
      ],
      "stateMutability": "view",
      "type": "function",
      "constant": true
    },
    {
      "inputs": [
        {
          "internalType": "uint256",
          "name": "_doctorId",
          "type": "uint256"
        }
      ],
      "name": "isDoctorRegistered",
      "outputs": [
        {
          "internalType": "bool",
          "name": "",
          "type": "bool"
        }
      ],
      "stateMutability": "view",
      "type": "function",
      "constant": true
    },
    {
      "inputs": [],
      "name": "getDoctorIds",
      "outputs": [
        {
          "internalType": "uint256[]",
          "name": "",
          "type": "uint256[]"
        }
      ],
      "stateMutability": "view",
      "type": "function",
      "constant": true
    },
    {
      "inputs": [
        {
          "internalType": "uint256",
          "name": "_doctorId",
          "type": "uint256"
        }
      ],
      "name": "getHospitalIdByDoctor",
      "outputs": [
        {
          "internalType": "uint256",
          "name": "",
          "type": "uint256"
        }
      ],
      "stateMutability": "view",
      "type": "function",
      "constant": true
    }
  ],
  "bytecode": "0x60a0346100d357601f6114fc38819003918201601f19168301916001600160401b038311848410176100d8578084926020946040528339810103126100d357516001600160a01b038116908190036100d35780156100805760805260405161140d90816100ef823960805181818161024d015281816102a1015261103e0152f35b60405162461bcd60e51b815260206004820152602560248201527f486f73706974616c20636f6e74726163742061646472657373206973207265716044820152641d5a5c995960da1b6064820152608490fd5b600080fd5b634e487b7160e01b600052604160045260246000fdfe608080604052600436101561001357600080fd5b60003560e01c9081632fd338d314611152575080633b6d5b8c1461106d57806347dbb71a1461102857806378522bc41461100a5780637d53cd3114610fcc5780639c5c74db14610d84578063b48a250b1461018c578063caf717cc1461013d5763e486d9881461008257600080fd5b3461013857600036600319011261013857604051806004548083526020809301809160046000527f8a35acfbc15ff81a39ae7d344fd709f28e8600b4aa8c65c6b64bfe7fe36bd19b9060005b868282106101245786866100e48288038361120e565b604051928392818401908285525180915260408401929160005b82811061010d57505050500390f35b8351855286955093810193928101926001016100fe565b8354855290930192600192830192016100ce565b600080fd5b346101385760203660031901126101385760043580600052600160205261017160ff60066040600020015460a01c166112c7565b60005260016020526020600560406000200154604051908152f35b346101385760e0366003190112610138576024356001600160401b038111610138576101bc9036906004016111c5565b6044356001600160401b038111610138576101db9036906004016111c5565b906064356001600160401b038111610138576101fb9036906004016111c5565b92906084356001600160401b0381116101385761021c9036906004016111c5565b60c435956001600160a01b038716870361013857604051633778c6f360e21b815260a43560048201526020816024817f00000000000000000000000000000000000000000000000000000000000000006001600160a01b03165afa908115610cf857600091610d49575b5015610d0457604051638da5cb5b60e01b81526020816004817f00000000000000000000000000000000000000000000000000000000000000006001600160a01b03165afa908115610cf857600091610cb6575b506001600160a01b03163303610c615760043515610c10578715610bcb578415610b7c578015610b37578115610af2576001600160a01b03871615610aad57600435600052600160205260ff60066040600020015460a01c16610a68576001600160a01b038716600090815260026020526040902054610a23576103a3936103979161038b6040519861036c8a6111f2565b6004358a5261037c368d8f61122f565b9860208b01998a52369161122f565b6040890152369161122f565b6060860152369161122f565b608083015260a43560a083015260018060a01b03831660c0830152600160e0830152600435600052600160205260406000209082518255518051906001600160401b0382116106c25781906103fb6001850154611275565b601f81116109d0575b50602090601f831160011461095e57600092610953575b50508160011b916000199060031b1c19161760018201555b60408201518051906001600160401b0382116106c25781906104586002850154611275565b601f8111610900575b50602090601f831160011461088e57600092610883575b50508160011b916000199060031b1c19161760028201555b60608201518051906001600160401b0382116106c25781906104b56003850154611275565b601f8111610830575b50602090601f83116001146107be576000926107b3575b50508160011b916000199060031b1c19161760038201555b60808201518051906001600160401b0382116106c2576105106004840154611275565b601f811161076c575b50602090601f83116001146106f9576006939291600091836106ee575b50508160011b916000199060031b1c19161760048201555b60a08301516005820155019060018060a01b0360c08201511682549160e060ff60a01b910151151560a01b16916affffffffffffffffffffff60a81b16171790556004546801000000000000000090818110156106c25760018101806004558110156106d857600435907f8a35acfbc15ff81a39ae7d344fd709f28e8600b4aa8c65c6b64bfe7fe36bd19b015560a43560005260036020526040600020908154908110156106c257610605916001820181556112af565b81549060031b90600435821b91600019901b191617905560018060a01b0381166000526002602052600435604060002055600054600181018091116106ac57600055816040519360408552816040860152606085013760006060838501015260018060a01b031660208301527f944ac5afab9eafc510898796677ea656931f62df61261a76af86864dfaec218060a4359260608160043594601f80199101168101030190a3005b634e487b7160e01b600052601160045260246000fd5b634e487b7160e01b600052604160045260246000fd5b634e487b7160e01b600052603260045260246000fd5b015190508880610536565b906004840160005260206000209160005b601f1985168110610754575091839160019360069695601f1981161061073b575b505050811b01600482015561054e565b015160001960f88460031b161c1916905588808061072b565b9192602060018192868501518155019401920161070a565b600484016000526020600020601f840160051c8101602085106107ac575b601f830160051c820181106107a0575050610519565b6000815560010161078a565b508061078a565b0151905087806104d5565b9250600384016000526020600020906000935b601f1984168510610815576001945083601f198116106107fc575b505050811b0160038201556104ed565b015160001960f88460031b161c191690558780806107ec565b818101518355602094850194600190930192909101906107d1565b909150600384016000526020600020601f840160051c81016020851061087c575b90849392915b601f830160051c8201811061086d5750506104be565b60008155859450600101610857565b5080610851565b015190508780610478565b9250600284016000526020600020906000935b601f19841685106108e5576001945083601f198116106108cc575b505050811b016002820155610490565b015160001960f88460031b161c191690558780806108bc565b818101518355602094850194600190930192909101906108a1565b909150600284016000526020600020601f840160051c81016020851061094c575b90849392915b601f830160051c8201811061093d575050610461565b60008155859450600101610927565b5080610921565b01519050878061041b565b9250600184016000526020600020906000935b601f19841685106109b5576001945083601f1981161061099c575b505050811b016001820155610433565b015160001960f88460031b161c1916905587808061098c565b81810151835560209485019460019093019290910190610971565b909150600184016000526020600020601f840160051c810160208510610a1c575b90849392915b601f830160051c82018110610a0d575050610404565b600081558594506001016109f7565b50806109f1565b60405162461bcd60e51b815260206004820152601f60248201527f57616c6c657420616c7265616479206c696e6b656420746f20646f63746f72006044820152606490fd5b60405162461bcd60e51b815260206004820152601960248201527f446f63746f7220616c72656164792072656769737465726564000000000000006044820152606490fd5b60405162461bcd60e51b815260206004820152601960248201527f446f63746f722077616c6c6574206973207265717569726564000000000000006044820152606490fd5b60405162461bcd60e51b815260206004820152601a60248201527f446f63746f7220616464726573732069732072657175697265640000000000006044820152606490fd5b60405162461bcd60e51b815260206004820152601860248201527f446f63746f722070686f6e6520697320726571756972656400000000000000006044820152606490fd5b60405162461bcd60e51b815260206004820152602160248201527f446f63746f72207370656369616c69736174696f6e20697320726571756972656044820152601960fa1b6064820152608490fd5b60405162461bcd60e51b815260206004820152601760248201527f446f63746f72206e616d652069732072657175697265640000000000000000006044820152606490fd5b60405162461bcd60e51b815260206004820152602360248201527f446f63746f72204944206d7573742062652067726561746572207468616e207a60448201526265726f60e81b6064820152608490fd5b60405162461bcd60e51b815260206004820152602760248201527f4f6e6c79207265676973746572656420686f73706974616c2063616e20616464604482015266103237b1ba37b960c91b6064820152608490fd5b90506020813d602011610cf0575b81610cd16020938361120e565b8101031261013857516001600160a01b0381168103610138578a6102da565b3d9150610cc4565b6040513d6000823e3d90fd5b60405162461bcd60e51b815260206004820152601a60248201527f486f73706974616c206973206e6f7420726567697374657265640000000000006044820152606490fd5b90506020813d602011610d7c575b81610d646020938361120e565b8101031261013857518015158103610138578a610286565b3d9150610d57565b3461013857602080600319360112610138576004356000526003808252604060002090815490610db3826113ac565b92610dc1604051948561120e565b828452601f19610dd0846113ac565b018560005b828110610f825750505060005b838110610ec257604080518781528651818901819052600092600582901b8301810191898b01918b9085015b828710610e1b5785850386f35b909192938280600192603f198982030185528751908151815260e080610e8f610e7c610e69610e5788880151610100808b8a0152880190611185565b60408801518782036040890152611185565b6060808801519087830390880152611185565b6080808701519086830390870152611185565b9360a0808201519085015260c0888060a01b03818301511690850152015115159101529601920196019592919092610e0e565b610ecc81836112af565b905490841b1c600052600180875260ff6040600020610efc60405193610ef1856111f2565b825485528201611306565b89840152610f0c60028201611306565b6040840152610f1c868201611306565b6060840152610f2d60048201611306565b6080840152600660058201549160a0928386015201549060018060a01b03821660c08501521c16151560e0820152610f6582876113c3565b52610f7081866113c3565b5060001981146106ac57600101610de2565b604051610f8e816111f2565b600081526060808483015280604083015280808301526080820152600060a0820152600060c0820152600060e0820152828289010152018690610dd5565b34610138576020366003190112610138576004356001600160a01b038116908190036101385760005260026020526020604060002054604051908152f35b34610138576000366003190112610138576020600054604051908152f35b34610138576000366003190112610138576040517f00000000000000000000000000000000000000000000000000000000000000006001600160a01b03168152602090f35b346101385760203660031901126101385760043560005260016020526040600020600681015460ff8160a01c16906110a4826112c7565b8254916005840154916111316110bc60018701611306565b956111236110cc60028301611306565b916111156110e860046110e160038501611306565b9301611306565b936111076040519b8c9b8c5260208c61010091829101528c0190611185565b908a820360408c0152611185565b9088820360608a0152611185565b908682036080880152611185565b60a08501939093526001600160a01b031660c0840152151560e08301520390f35b34610138576020366003190112610138576020906004356000526001825260ff60066040600020015460a01c1615158152f35b919082519283825260005b8481106111b1575050826000602080949584010152601f8019910116010190565b602081830181015184830182015201611190565b9181601f84011215610138578235916001600160401b038311610138576020838186019501011161013857565b61010081019081106001600160401b038211176106c257604052565b90601f801991011681019081106001600160401b038211176106c257604052565b9291926001600160401b0382116106c25760405191611258601f8201601f19166020018461120e565b829481845281830111610138578281602093846000960137010152565b90600182811c921680156112a5575b602083101461128f57565b634e487b7160e01b600052602260045260246000fd5b91607f1691611284565b80548210156106d85760005260206000200190600090565b156112ce57565b60405162461bcd60e51b815260206004820152601060248201526f111bd8dd1bdc881b9bdd08199bdd5b9960821b6044820152606490fd5b906040519182600082549261131a84611275565b9081845260019485811690816000146113895750600114611346575b50506113449250038361120e565b565b9093915060005260209081600020936000915b81831061137157505061134493508201013880611336565b85548884018501529485019487945091830191611359565b91505061134494506020925060ff191682840152151560051b8201013880611336565b6001600160401b0381116106c25760051b60200190565b80518210156106d85760209160051b01019056fea2646970667358221220a9b6e858970283e05b9ca2749a7a28693265a26b825e525a337a7880ff72db9864736f6c63430008130033",
  "immutableReferences": {
    "17": [
      {
        "length": 32,
        "start": 589
      },
      {
        "length": 32,
        "start": 673
      },
      {
        "length": 32,
        "start": 4158
      }
    ]
  },
  "source": "// SPDX-License-Identifier: MIT\r\npragma solidity ^0.8.19;\r\n\r\ninterface IHospitalContract {\r\n    function owner() external view returns (address);\r\n    function isHospitalRegistered(uint256 _hospitalId) external view returns (bool);\r\n}\r\n\r\ncontract Doctor {\r\n    IHospitalContract public immutable hospitalContract;\r\n    uint256 public doctorCount;\r\n\r\n    struct DoctorInfo {\r\n        uint256 doctorId;\r\n        string name;\r\n        string specialisation;\r\n        string phone;\r\n        string doctorAddress;\r\n        uint256 hospitalId;\r\n        address wallet;\r\n        bool exists;\r\n    }\r\n\r\n    mapping(uint256 => DoctorInfo) private doctors;\r\n    mapping(address => uint256) private doctorIdByWallet;\r\n    mapping(uint256 => uint256[]) private doctorIdsByHospital;\r\n    uint256[] private doctorIds;\r\n\r\n    event DoctorRegistered(uint256 indexed doctorId, string name, uint256 indexed hospitalId, address wallet);\r\n\r\n    modifier onlyRegisteredHospital(uint256 _hospitalId) {\r\n        require(hospitalContract.isHospitalRegistered(_hospitalId), \"Hospital is not registered\");\r\n        require(msg.sender == hospitalContract.owner(), \"Only registered hospital can add doctor\");\r\n        _;\r\n    }\r\n\r\n    /// @notice Sets the Hospital contract reference for hospital validation.\r\n    constructor(address _hospitalContractAddress) {\r\n        require(_hospitalContractAddress != address(0), \"Hospital contract address is required\");\r\n        hospitalContract = IHospitalContract(_hospitalContractAddress);\r\n    }\r\n\r\n    /// @notice Registers one doctor under a registered hospital.\r\n    /// @dev Only hospital owner (registry owner) can register doctors mapped to a valid hospital ID.\r\n    function registerDoctor(\r\n        uint256 _doctorId,\r\n        string calldata _name,\r\n        string calldata _specialisation,\r\n        string calldata _phone,\r\n        string calldata _doctorAddress,\r\n        uint256 _hospitalId,\r\n        address _doctorWallet\r\n    ) external onlyRegisteredHospital(_hospitalId) {\r\n        require(_doctorId > 0, \"Doctor ID must be greater than zero\");\r\n        require(bytes(_name).length > 0, \"Doctor name is required\");\r\n        require(bytes(_specialisation).length > 0, \"Doctor specialisation is required\");\r\n        require(bytes(_phone).length > 0, \"Doctor phone is required\");\r\n        require(bytes(_doctorAddress).length > 0, \"Doctor address is required\");\r\n        require(_doctorWallet != address(0), \"Doctor wallet is required\");\r\n        require(!doctors[_doctorId].exists, \"Doctor already registered\");\r\n        require(doctorIdByWallet[_doctorWallet] == 0, \"Wallet already linked to doctor\");\r\n\r\n        doctors[_doctorId] = DoctorInfo({\r\n            doctorId: _doctorId,\r\n            name: _name,\r\n            specialisation: _specialisation,\r\n            phone: _phone,\r\n            doctorAddress: _doctorAddress,\r\n            hospitalId: _hospitalId,\r\n            wallet: _doctorWallet,\r\n            exists: true\r\n        });\r\n\r\n        doctorIds.push(_doctorId);\r\n        doctorIdsByHospital[_hospitalId].push(_doctorId);\r\n        doctorIdByWallet[_doctorWallet] = _doctorId;\r\n        doctorCount += 1;\r\n\r\n        emit DoctorRegistered(_doctorId, _name, _hospitalId, _doctorWallet);\r\n    }\r\n\r\n    /// @notice Gets full details of a doctor by doctor ID.\r\n    function getDoctorDetails(\r\n        uint256 _doctorId\r\n    )\r\n        external\r\n        view\r\n        returns (\r\n            uint256 doctorId,\r\n            string memory name,\r\n            string memory specialisation,\r\n            string memory phone,\r\n            string memory doctorAddress,\r\n            uint256 hospitalId,\r\n            address wallet,\r\n            bool exists\r\n        )\r\n    {\r\n        DoctorInfo storage doctor = doctors[_doctorId];\r\n        require(doctor.exists, \"Doctor not found\");\r\n\r\n        return (\r\n            doctor.doctorId,\r\n            doctor.name,\r\n            doctor.specialisation,\r\n            doctor.phone,\r\n            doctor.doctorAddress,\r\n            doctor.hospitalId,\r\n            doctor.wallet,\r\n            doctor.exists\r\n        );\r\n    }\r\n\r\n    /// @notice Returns all doctor profiles under a specific hospital.\r\n    function getDoctorsByHospital(uint256 _hospitalId) external view returns (DoctorInfo[] memory) {\r\n        uint256[] storage ids = doctorIdsByHospital[_hospitalId];\r\n        DoctorInfo[] memory results = new DoctorInfo[](ids.length);\r\n\r\n        for (uint256 i = 0; i < ids.length; i++) {\r\n            results[i] = doctors[ids[i]];\r\n        }\r\n\r\n        return results;\r\n    }\r\n\r\n    /// @notice Returns doctor ID associated with a wallet for access-control checks.\r\n    function getDoctorIdByWallet(address _wallet) external view returns (uint256) {\r\n        return doctorIdByWallet[_wallet];\r\n    }\r\n\r\n    /// @notice Checks if a doctor ID is already registered.\r\n    function isDoctorRegistered(uint256 _doctorId) external view returns (bool) {\r\n        return doctors[_doctorId].exists;\r\n    }\r\n\r\n    /// @notice Returns all doctor IDs in the system.\r\n    function getDoctorIds() external view returns (uint256[] memory) {\r\n        return doctorIds;\r\n    }\r\n\r\n    /// @notice Returns the hospital ID where a doctor is registered.\r\n    function getHospitalIdByDoctor(uint256 _doctorId) external view returns (uint256) {\r\n        require(doctors[_doctorId].exists, \"Doctor not found\");\r\n        return doctors[_doctorId].hospitalId;\r\n    }\r\n}\r\n",
  "sourcePath": "C:\\Users\\baala\\OneDrive\\Desktop\\cyber - 2\\healthcare-blockchain\\contracts\\Doctor.sol",
  "compiler": {
    "name": "solc",
    "version": "0.8.19+commit.7dd6d404.Emscripten.clang"
  },
  "schemaVersion": "3.4.16",
  "updatedAt": "2026-04-08T18:38:54.229Z",
  "networkType": "ethereum",
  "devdoc": {
    "kind": "dev",
    "methods": {
      "registerDoctor(uint256,string,string,string,string,uint256,address)": {
        "details": "Only hospital owner (registry owner) can register doctors mapped to a valid hospital ID."
      }
    },
    "version": 1
  },
  "userdoc": {
    "kind": "user",
    "methods": {
      "constructor": {
        "notice": "Sets the Hospital contract reference for hospital validation."
      },
      "getDoctorDetails(uint256)": {
        "notice": "Gets full details of a doctor by doctor ID."
      },
      "getDoctorIdByWallet(address)": {
        "notice": "Returns doctor ID associated with a wallet for access-control checks."
      },
      "getDoctorIds()": {
        "notice": "Returns all doctor IDs in the system."
      },
      "getDoctorsByHospital(uint256)": {
        "notice": "Returns all doctor profiles under a specific hospital."
      },
      "getHospitalIdByDoctor(uint256)": {
        "notice": "Returns the hospital ID where a doctor is registered."
      },
      "isDoctorRegistered(uint256)": {
        "notice": "Checks if a doctor ID is already registered."
      },
      "registerDoctor(uint256,string,string,string,string,uint256,address)": {
        "notice": "Registers one doctor under a registered hospital."
      }
    },
    "version": 1
  }
}