{
  "contractName": "Hospital",
  "abi": [
    {
      "inputs": [],
      "stateMutability": "nonpayable",
      "type": "constructor"
    },
    {
      "anonymous": false,
      "inputs": [
        {
          "indexed": true,
          "internalType": "uint256",
          "name": "hospitalId",
          "type": "uint256"
        },
        {
          "indexed": false,
          "internalType": "string",
          "name": "name",
          "type": "string"
        },
        {
          "indexed": false,
          "internalType": "string",
          "name": "specialisation",
          "type": "string"
        }
      ],
      "name": "HospitalRegistered",
      "type": "event"
    },
    {
      "inputs": [],
      "name": "MAX_HOSPITALS",
      "outputs": [
        {
          "internalType": "uint256",
          "name": "",
          "type": "uint256"
        }
      ],
      "stateMutability": "view",
      "type": "function",
      "constant": true
    },
    {
      "inputs": [],
      "name": "hospitalCount",
      "outputs": [
        {
          "internalType": "uint256",
          "name": "",
          "type": "uint256"
        }
      ],
      "stateMutability": "view",
      "type": "function",
      "constant": true
    },
    {
      "inputs": [],
      "name": "owner",
      "outputs": [
        {
          "internalType": "address",
          "name": "",
          "type": "address"
        }
      ],
      "stateMutability": "view",
      "type": "function",
      "constant": true
    },
    {
      "inputs": [
        {
          "internalType": "uint256",
          "name": "_hospitalId",
          "type": "uint256"
        },
        {
          "internalType": "string",
          "name": "_name",
          "type": "string"
        },
        {
          "internalType": "string",
          "name": "_hospitalAddress",
          "type": "string"
        },
        {
          "internalType": "string",
          "name": "_specialisation",
          "type": "string"
        }
      ],
      "name": "registerHospital",
      "outputs": [],
      "stateMutability": "nonpayable",
      "type": "function"
    },
    {
      "inputs": [
        {
          "internalType": "uint256",
          "name": "_hospitalId",
          "type": "uint256"
        }
      ],
      "name": "getHospitalDetails",
      "outputs": [
        {
          "internalType": "uint256",
          "name": "hospitalId",
          "type": "uint256"
        },
        {
          "internalType": "string",
          "name": "name",
          "type": "string"
        },
        {
          "internalType": "string",
          "name": "hospitalAddress",
          "type": "string"
        },
        {
          "internalType": "string",
          "name": "specialisation",
          "type": "string"
        },
        {
          "internalType": "bool",
          "name": "exists",
          "type": "bool"
        }
      ],
      "stateMutability": "view",
      "type": "function",
      "constant": true
    },
    {
      "inputs": [],
      "name": "getAllHospitals",
      "outputs": [
        {
          "components": [
            {
              "internalType": "uint256",
              "name": "hospitalId",
              "type": "uint256"
            },
            {
              "internalType": "string",
              "name": "name",
              "type": "string"
            },
            {
              "internalType": "string",
              "name": "hospitalAddress",
              "type": "string"
            },
            {
              "internalType": "string",
              "name": "specialisation",
              "type": "string"
            },
            {
              "internalType": "bool",
              "name": "exists",
              "type": "bool"
            }
          ],
          "internalType": "struct Hospital.HospitalInfo[]",
          "name": "",
          "type": "tuple[]"
        }
      ],
      "stateMutability": "view",
      "type": "function",
      "constant": true
    },
    {
      "inputs": [],
      "name": "getHospitalIds",
      "outputs": [
        {
          "internalType": "uint256[]",
          "name": "",
          "type": "uint256[]"
        }
      ],
      "stateMutability": "view",
      "type": "function",
      "constant": true
    },
    {
      "inputs": [
        {
          "internalType": "uint256",
          "name": "_hospitalId",
          "type": "uint256"
        }
      ],
      "name": "isHospitalRegistered",
      "outputs": [
        {
          "internalType": "bool",
          "name": "",
          "type": "bool"
        }
      ],
      "stateMutability": "view",
      "type": "function",
      "constant": true
    }
  ],
  "bytecode": "0x60a0806040523461002a5733608052610ecf908161003082396080518181816101fd01526109400152f35b600080fdfe608080604052600436101561001357600080fd5b60003560e01c908163350dadb714610c11575080634b0a757314610b385780634e9f71541461096f5780638da5cb5b1461092a578063b5a9056414610182578063b651590a14610166578063dde31bcc146101325763ea2942a31461007757600080fd5b3461012d57600036600319011261012d57604051806002548083526020809301809160026000527f405787fa12a823e0f2b7631cc41b3ba8828b3321ca811111fa75cd3aa3bb5ace9060005b868282106101195786866100d982880383610cb6565b604051928392818401908285525180915260408401929160005b82811061010257505050500390f35b8351855286955093810193928101926001016100f3565b8354855290930192600192830192016100c3565b600080fd5b3461012d57602036600319011261012d576004356000526001602052602060ff600460406000200154166040519015158152f35b3461012d57600036600319011261012d576020604051600a8152f35b3461012d57608036600319011261012d5760243567ffffffffffffffff811161012d576101b3903690600401610c6c565b60443567ffffffffffffffff811161012d576101d3903690600401610c6c565b92909160643567ffffffffffffffff811161012d576101f6903690600401610c6c565b90949093907f00000000000000000000000000000000000000000000000000000000000000006001600160a01b031633036108d2576004351561087f57821561083a5780156107f55784156107b057600a600054101561076b57600435600052600160205260ff600460406000200154166107265761029a6040519261027b84610c9a565b600435845261028b368688610cd8565b92602085019384523691610cd8565b60408301526102aa368688610cd8565b6060830152600160808301526004356000526001602052604060002090825182555180519067ffffffffffffffff82116104b05781906102ed6001850154610d1f565b601f81116106d3575b50602090601f831160011461066157600092610656575b50508160011b916000199060031b1c19161760018201555b604082015180519067ffffffffffffffff82116104b057819061034b6002850154610d1f565b601f8111610603575b50602090601f83116001146105965760009261058b575b50508160011b916000199060031b1c19161760028201555b606082015180519067ffffffffffffffff82116104b0576103a76003840154610d1f565b601f8111610544575b50602090601f83116001146104d1579180608094926004946000926104c6575b50508160011b916000199060031b1c19161760038201555b01910151151560ff80198354169116179055600254680100000000000000008110156104b05780600161041e9201600255610d59565b81549060031b90600435821b91600019901b19161790556000546001810180911161049a577f5b679144d6f342f08afb79453d19ae27b403c250003ebbf5167ccbc889ac6e7f9361049591600055610483604051948594604086526040860191610da6565b90838203602085015260043596610da6565b0390a2005b634e487b7160e01b600052601160045260246000fd5b634e487b7160e01b600052604160045260246000fd5b015190508a806103d0565b90601f198316916003850160005260206000209260005b81811061052c57509260019285926004966080989610610513575b505050811b0160038201556103e8565b015160001960f88460031b161c191690558a8080610503565b929360206001819287860151815501950193016104e8565b600384016000526020600020601f840160051c810160208510610584575b601f830160051c820181106105785750506103b0565b60008155600101610562565b5080610562565b01519050888061036b565b600285016000908152602081209350601f198516905b8181106105eb57509084600195949392106105d2575b505050811b016002820155610383565b015160001960f88460031b161c191690558880806105c2565b929360206001819287860151815501950193016105ac565b909150600284016000526020600020601f840160051c81016020851061064f575b90849392915b601f830160051c82018110610640575050610354565b6000815585945060010161062a565b5080610624565b01519050888061030d565b9250600184016000526020600020906000935b601f19841685106106b8576001945083601f1981161061069f575b505050811b016001820155610325565b015160001960f88460031b161c1916905588808061068f565b81810151835560209485019460019093019290910190610674565b909150600184016000526020600020601f840160051c81016020851061071f575b90849392915b601f830160051c820181106107105750506102f6565b600081558594506001016106fa565b50806106f4565b60405162461bcd60e51b815260206004820152601b60248201527f486f73706974616c20616c7265616479207265676973746572656400000000006044820152606490fd5b60405162461bcd60e51b815260206004820152601c60248201527f4d6178696d756d20313020686f73706974616c7320616c6c6f776564000000006044820152606490fd5b60405162461bcd60e51b815260206004820152601a60248201527f5370656369616c69736174696f6e2069732072657175697265640000000000006044820152606490fd5b60405162461bcd60e51b815260206004820152601c60248201527f486f73706974616c2061646472657373206973207265717569726564000000006044820152606490fd5b60405162461bcd60e51b815260206004820152601960248201527f486f73706974616c206e616d65206973207265717569726564000000000000006044820152606490fd5b60405162461bcd60e51b815260206004820152602560248201527f486f73706974616c204944206d7573742062652067726561746572207468616e604482015264207a65726f60d81b6064820152608490fd5b60405162461bcd60e51b815260206004820152602a60248201527f4f6e6c7920636f6e7472616374206f776e65722063616e2063616c6c207468696044820152693990333ab731ba34b7b760b11b6064820152608490fd5b3461012d57600036600319011261012d576040517f00000000000000000000000000000000000000000000000000000000000000006001600160a01b03168152602090f35b3461012d57600036600319011261012d576002805461098d81610e6d565b9161099b6040519384610cb6565b818352601f196109aa83610e6d565b0160005b818110610b0057505060005b828110610a6a576040805160208082528651818301819052600093600582901b8401810192808a01929185015b8287106109f45785850386f35b909192938280600192603f1989820301855287519081518152610a4e610a3b610a298585015160a08088870152850190610c2c565b60408501518482036040860152610c2c565b6060808501519084830390850152610c2c565b91608080910151151591015296019201960195929190926109e7565b610a7381610d59565b9054600391821b1c60005260ff6004600192610aca602091858352604060002092610aaf60405197610aa489610c9a565b855489528501610dc7565b90870152610abe888401610dc7565b60408701528201610dc7565b606085015201541615156080820152610ae38286610e85565b52610aee8185610e85565b50600019811461049a576001016109ba565b602090604051610b0f81610c9a565b6000815260608390808284015280604084015280830152600060808301528288010152016109ae565b3461012d57602036600319011261012d576004356000526001602052604060002060ff60048201541615610bd7578054610bcc610b7760018401610dc7565b92610bbe610b936003610b8c60028501610dc7565b9301610dc7565b91610bb0604051968796875260a0602088015260a0870190610c2c565b908582036040870152610c2c565b908382036060850152610c2c565b600160808301520390f35b60405162461bcd60e51b8152602060048201526012602482015271121bdcdc1a5d185b081b9bdd08199bdd5b9960721b6044820152606490fd5b3461012d57600036600319011261012d576020906000548152f35b919082519283825260005b848110610c58575050826000602080949584010152601f8019910116010190565b602081830181015184830182015201610c37565b9181601f8401121561012d5782359167ffffffffffffffff831161012d576020838186019501011161012d57565b60a0810190811067ffffffffffffffff8211176104b057604052565b90601f8019910116810190811067ffffffffffffffff8211176104b057604052565b92919267ffffffffffffffff82116104b05760405191610d02601f8201601f191660200184610cb6565b82948184528183011161012d578281602093846000960137010152565b90600182811c92168015610d4f575b6020831014610d3957565b634e487b7160e01b600052602260045260246000fd5b91607f1691610d2e565b600254811015610d905760026000527f405787fa12a823e0f2b7631cc41b3ba8828b3321ca811111fa75cd3aa3bb5ace0190600090565b634e487b7160e01b600052603260045260246000fd5b908060209392818452848401376000828201840152601f01601f1916010190565b9060405191826000825492610ddb84610d1f565b908184526001948581169081600014610e4a5750600114610e07575b5050610e0592500383610cb6565b565b9093915060005260209081600020936000915b818310610e32575050610e0593508201013880610df7565b85548884018501529485019487945091830191610e1a565b915050610e0594506020925060ff191682840152151560051b8201013880610df7565b67ffffffffffffffff81116104b05760051b60200190565b8051821015610d905760209160051b01019056fea2646970667358221220986cd2baff47830f1712239f5e3fbfcd3dacdcf021e2bdd6c4a3001790e2c70064736f6c63430008130033",
  "immutableReferences": {
    "432": [
      {
        "length": 32,
        "start": 509
      },
      {
        "length": 32,
        "start": 2368
      }
    ]
  },
  "source": "// SPDX-License-Identifier: MIT\r\npragma solidity ^0.8.19;\r\n\r\ncontract Hospital {\r\n    address public immutable owner;\r\n    uint256 public hospitalCount;\r\n    uint256 public constant MAX_HOSPITALS = 10;\r\n\r\n    struct HospitalInfo {\r\n        uint256 hospitalId;\r\n        string name;\r\n        string hospitalAddress;\r\n        string specialisation;\r\n        bool exists;\r\n    }\r\n\r\n    mapping(uint256 => HospitalInfo) private hospitals;\r\n    uint256[] private hospitalIds;\r\n\r\n    event HospitalRegistered(uint256 indexed hospitalId, string name, string specialisation);\r\n\r\n    modifier onlyOwner() {\r\n        require(msg.sender == owner, \"Only contract owner can call this function\");\r\n        _;\r\n    }\r\n\r\n    /// @notice Sets the deployer as the hospital registry owner.\r\n    constructor() {\r\n        owner = msg.sender;\r\n    }\r\n\r\n    /// @notice Registers one hospital profile in the system.\r\n    /// @dev Only contract owner can register hospitals and maximum is limited to 10 for demo scope.\r\n    function registerHospital(\r\n        uint256 _hospitalId,\r\n        string calldata _name,\r\n        string calldata _hospitalAddress,\r\n        string calldata _specialisation\r\n    ) external onlyOwner {\r\n        require(_hospitalId > 0, \"Hospital ID must be greater than zero\");\r\n        require(bytes(_name).length > 0, \"Hospital name is required\");\r\n        require(bytes(_hospitalAddress).length > 0, \"Hospital address is required\");\r\n        require(bytes(_specialisation).length > 0, \"Specialisation is required\");\r\n        require(hospitalCount < MAX_HOSPITALS, \"Maximum 10 hospitals allowed\");\r\n        require(!hospitals[_hospitalId].exists, \"Hospital already registered\");\r\n\r\n        hospitals[_hospitalId] = HospitalInfo({\r\n            hospitalId: _hospitalId,\r\n            name: _name,\r\n            hospitalAddress: _hospitalAddress,\r\n            specialisation: _specialisation,\r\n            exists: true\r\n        });\r\n\r\n        hospitalIds.push(_hospitalId);\r\n        hospitalCount += 1;\r\n\r\n        emit HospitalRegistered(_hospitalId, _name, _specialisation);\r\n    }\r\n\r\n    /// @notice Gets complete details of a single hospital by ID.\r\n    function getHospitalDetails(\r\n        uint256 _hospitalId\r\n    )\r\n        external\r\n        view\r\n        returns (\r\n            uint256 hospitalId,\r\n            string memory name,\r\n            string memory hospitalAddress,\r\n            string memory specialisation,\r\n            bool exists\r\n        )\r\n    {\r\n        HospitalInfo storage hospital = hospitals[_hospitalId];\r\n        require(hospital.exists, \"Hospital not found\");\r\n\r\n        return (\r\n            hospital.hospitalId,\r\n            hospital.name,\r\n            hospital.hospitalAddress,\r\n            hospital.specialisation,\r\n            hospital.exists\r\n        );\r\n    }\r\n\r\n    /// @notice Returns all hospitals as an array of structs for table rendering in frontend.\r\n    function getAllHospitals() external view returns (HospitalInfo[] memory) {\r\n        HospitalInfo[] memory allHospitals = new HospitalInfo[](hospitalIds.length);\r\n\r\n        for (uint256 i = 0; i < hospitalIds.length; i++) {\r\n            allHospitals[i] = hospitals[hospitalIds[i]];\r\n        }\r\n\r\n        return allHospitals;\r\n    }\r\n\r\n    /// @notice Returns all registered hospital IDs.\r\n    function getHospitalIds() external view returns (uint256[] memory) {\r\n        return hospitalIds;\r\n    }\r\n\r\n    /// @notice Checks whether the provided hospital ID is already registered.\r\n    function isHospitalRegistered(uint256 _hospitalId) external view returns (bool) {\r\n        return hospitals[_hospitalId].exists;\r\n    }\r\n}\r\n",
  "sourcePath": "C:\\Users\\baala\\OneDrive\\Desktop\\cyber - 2\\healthcare-blockchain\\contracts\\Hospital.sol",
  "compiler": {
    "name": "solc",
    "version": "0.8.19+commit.7dd6d404.Emscripten.clang"
  },
  "schemaVersion": "3.4.16",
  "updatedAt": "2026-04-08T18:38:54.225Z",
  "networkType": "ethereum",
  "devdoc": {
    "kind": "dev",
    "methods": {
      "registerHospital(uint256,string,string,string)": {
        "details": "Only contract owner can register hospitals and maximum is limited to 10 for demo scope."
      }
    },
    "version": 1
  },
  "userdoc": {
    "kind": "user",
    "methods": {
      "constructor": {
        "notice": "Sets the deployer as the hospital registry owner."
      },
      "getAllHospitals()": {
        "notice": "Returns all hospitals as an array of structs for table rendering in frontend."
      },
      "getHospitalDetails(uint256)": {
        "notice": "Gets complete details of a single hospital by ID."
      },
      "getHospitalIds()": {
        "notice": "Returns all registered hospital IDs."
      },
      "isHospitalRegistered(uint256)": {
        "notice": "Checks whether the provided hospital ID is already registered."
      },
      "registerHospital(uint256,string,string,string)": {
        "notice": "Registers one hospital profile in the system."
      }
    },
    "version": 1
  }
}