{
  "contractName": "Patient",
  "abi": [
    {
      "inputs": [
        {
          "internalType": "address",
          "name": "_doctorContractAddress",
          "type": "address"
        }
      ],
      "stateMutability": "nonpayable",
      "type": "constructor"
    },
    {
      "anonymous": false,
      "inputs": [
        {
          "indexed": true,
          "internalType": "uint256",
          "name": "patientId",
          "type": "uint256"
        },
        {
          "indexed": true,
          "internalType": "uint256",
          "name": "doctorId",
          "type": "uint256"
        },
        {
          "indexed": false,
          "internalType": "uint256",
          "name": "timestamp",
          "type": "uint256"
        }
      ],
      "name": "AccessGranted",
      "type": "event"
    },
    {
      "anonymous": false,
      "inputs": [
        {
          "indexed": true,
          "internalType": "uint256",
          "name": "patientId",
          "type": "uint256"
        },
        {
          "indexed": true,
          "internalType": "uint256",
          "name": "doctorId",
          "type": "uint256"
        },
        {
          "indexed": false,
          "internalType": "uint256",
          "name": "timestamp",
          "type": "uint256"
        }
      ],
      "name": "AccessRevoked",
      "type": "event"
    },
    {
      "anonymous": false,
      "inputs": [
        {
          "indexed": true,
          "internalType": "uint256",
          "name": "patientId",
          "type": "uint256"
        },
        {
          "indexed": true,
          "internalType": "address",
          "name": "ownerWallet",
          "type": "address"
        },
        {
          "indexed": false,
          "internalType": "string",
          "name": "name",
          "type": "string"
        }
      ],
      "name": "PatientRegistered",
      "type": "event"
    },
    {
      "inputs": [],
      "name": "MAX_PATIENTS",
      "outputs": [
        {
          "internalType": "uint256",
          "name": "",
          "type": "uint256"
        }
      ],
      "stateMutability": "view",
      "type": "function",
      "constant": true
    },
    {
      "inputs": [],
      "name": "doctorContract",
      "outputs": [
        {
          "internalType": "contract IDoctorDirectory",
          "name": "",
          "type": "address"
        }
      ],
      "stateMutability": "view",
      "type": "function",
      "constant": true
    },
    {
      "inputs": [],
      "name": "patientCount",
      "outputs": [
        {
          "internalType": "uint256",
          "name": "",
          "type": "uint256"
        }
      ],
      "stateMutability": "view",
      "type": "function",
      "constant": true
    },
    {
      "inputs": [
        {
          "internalType": "address",
          "name": "",
          "type": "address"
        }
      ],
      "name": "patientIdByWallet",
      "outputs": [
        {
          "internalType": "uint256",
          "name": "",
          "type": "uint256"
        }
      ],
      "stateMutability": "view",
      "type": "function",
      "constant": true
    },
    {
      "inputs": [
        {
          "internalType": "uint256",
          "name": "",
          "type": "uint256"
        }
      ],
      "name": "patientOwnerById",
      "outputs": [
        {
          "internalType": "address",
          "name": "",
          "type": "address"
        }
      ],
      "stateMutability": "view",
      "type": "function",
      "constant": true
    },
    {
      "inputs": [
        {
          "internalType": "uint256",
          "name": "_patientId",
          "type": "uint256"
        },
        {
          "internalType": "string",
          "name": "_name",
          "type": "string"
        },
        {
          "internalType": "uint256",
          "name": "_age",
          "type": "uint256"
        },
        {
          "internalType": "string",
          "name": "_gender",
          "type": "string"
        },
        {
          "internalType": "string",
          "name": "_height",
          "type": "string"
        },
        {
          "internalType": "string",
          "name": "_weight",
          "type": "string"
        },
        {
          "internalType": "string",
          "name": "_homeAddress",
          "type": "string"
        },
        {
          "internalType": "string",
          "name": "_phone",
          "type": "string"
        },
        {
          "internalType": "string",
          "name": "_email",
          "type": "string"
        },
        {
          "internalType": "string",
          "name": "_date",
          "type": "string"
        },
        {
          "internalType": "string",
          "name": "_attendantName",
          "type": "string"
        },
        {
          "internalType": "string",
          "name": "_attendantRelation",
          "type": "string"
        },
        {
          "internalType": "string",
          "name": "_attendantPhone",
          "type": "string"
        }
      ],
      "name": "registerPatient",
      "outputs": [],
      "stateMutability": "nonpayable",
      "type": "function"
    },
    {
      "inputs": [
        {
          "internalType": "uint256",
          "name": "_patientId",
          "type": "uint256"
        }
      ],
      "name": "getPatientDetails",
      "outputs": [
        {
          "internalType": "uint256",
          "name": "patientId",
          "type": "uint256"
        },
        {
          "internalType": "string",
          "name": "name",
          "type": "string"
        },
        {
          "internalType": "uint256",
          "name": "age",
          "type": "uint256"
        },
        {
          "internalType": "string",
          "name": "gender",
          "type": "string"
        },
        {
          "internalType": "string",
          "name": "height",
          "type": "string"
        },
        {
          "internalType": "string",
          "name": "weight",
          "type": "string"
        },
        {
          "internalType": "string",
          "name": "homeAddress",
          "type": "string"
        },
        {
          "internalType": "string",
          "name": "phone",
          "type": "string"
        },
        {
          "internalType": "string",
          "name": "email",
          "type": "string"
        },
        {
          "internalType": "string",
          "name": "date",
          "type": "string"
        },
        {
          "internalType": "string",
          "name": "attendantName",
          "type": "string"
        },
        {
          "internalType": "string",
          "name": "attendantRelation",
          "type": "string"
        },
        {
          "internalType": "string",
          "name": "attendantPhone",
          "type": "string"
        },
        {
          "internalType": "address",
          "name": "ownerWallet",
          "type": "address"
        },
        {
          "internalType": "bool",
          "name": "exists",
          "type": "bool"
        }
      ],
      "stateMutability": "view",
      "type": "function",
      "constant": true
    },
    {
      "inputs": [
        {
          "internalType": "uint256",
          "name": "_patientId",
          "type": "uint256"
        },
        {
          "internalType": "uint256",
          "name": "_doctorId",
          "type": "uint256"
        }
      ],
      "name": "grantAccess",
      "outputs": [],
      "stateMutability": "nonpayable",
      "type": "function"
    },
    {
      "inputs": [
        {
          "internalType": "uint256",
          "name": "_patientId",
          "type": "uint256"
        },
        {
          "internalType": "uint256",
          "name": "_doctorId",
          "type": "uint256"
        }
      ],
      "name": "revokeAccess",
      "outputs": [],
      "stateMutability": "nonpayable",
      "type": "function"
    },
    {
      "inputs": [
        {
          "internalType": "uint256",
          "name": "_patientId",
          "type": "uint256"
        },
        {
          "internalType": "uint256",
          "name": "_doctorId",
          "type": "uint256"
        }
      ],
      "name": "hasAccess",
      "outputs": [
        {
          "internalType": "bool",
          "name": "",
          "type": "bool"
        }
      ],
      "stateMutability": "view",
      "type": "function",
      "constant": true
    },
    {
      "inputs": [
        {
          "internalType": "uint256",
          "name": "_patientId",
          "type": "uint256"
        }
      ],
      "name": "getDoctorsWithAccess",
      "outputs": [
        {
          "internalType": "uint256[]",
          "name": "",
          "type": "uint256[]"
        }
      ],
      "stateMutability": "view",
      "type": "function",
      "constant": true
    },
    {
      "inputs": [
        {
          "internalType": "uint256",
          "name": "_patientId",
          "type": "uint256"
        },
        {
          "internalType": "address",
          "name": "_wallet",
          "type": "address"
        }
      ],
      "name": "isPatientOwner",
      "outputs": [
        {
          "internalType": "bool",
          "name": "",
          "type": "bool"
        }
      ],
      "stateMutability": "view",
      "type": "function",
      "constant": true
    },
    {
      "inputs": [],
      "name": "getAllPatientIds",
      "outputs": [
        {
          "internalType": "uint256[]",
          "name": "",
          "type": "uint256[]"
        }
      ],
      "stateMutability": "view",
      "type": "function",
      "constant": true
    },
    {
      "inputs": [
        {
          "internalType": "uint256",
          "name": "_patientId",
          "type": "uint256"
        }
      ],
      "name": "isPatientRegistered",
      "outputs": [
        {
          "internalType": "bool",
          "name": "",
          "type": "bool"
        }
      ],
      "stateMutability": "view",
      "type": "function",
      "constant": true
    }
  ],
  "bytecode": "0x60a0346100d857601f61230938819003918201601f19168301916001600160401b038311848410176100dd578084926020946040528339810103126100d857516001600160a01b038116908190036100d85780156100875760805260405161221590816100f4823960805181818161010f015281816117f1015281816119cd0152611b930152f35b60405162461bcd60e51b815260206004820152602360248201527f446f63746f7220636f6e747261637420616464726573732069732072657175696044820152621c995960ea1b6064820152608490fd5b600080fd5b634e487b7160e01b600052604160045260246000fdfe6101a080604052600436101561001457600080fd5b60003560e01c908163238af8b014611ec257508063300c601c14611b465780634d3252f814611b025780634f5d13771461197f578063532144e71461194b5780637b7ee0f01461190d5780637eee0112146118d5578063a0303c41146118b7578063cccd09f51461189b578063cff0572d14611820578063f23876e9146117db578063f455561b14611741578063f6dfa3fa146103665763f9dc134d146100ba57600080fd5b34610361576100c836611f32565b9080600052600390602092839183835260018060a01b036100f18160406000205416331461213d565b60405195868092632fd338d360e01b825285600483015260249889917f0000000000000000000000000000000000000000000000000000000000000000165afa80156103555761014991600091610328575b5061219b565b8060005260058352604060002082600052835260ff60406000205416156102d65780600052600583526040600020826000528352604060002060ff1981541690558060005260068352604060002092835494600019948587019687116102c15760005b815481101561029157856101c08284612051565b905490851b1c146101ef578681146101da576001016101ac565b88634e487b7160e01b60005260116004526000fd5b6102136102068395979961022c9499959799612051565b905490871b1c9185612051565b90919082549060031b91821b91600019901b1916179055565b815496871561027d5750807f780e35a35bfdc1e102755d77a01e3c49f83d233e1bbfafe8e8117cb802926df495969701926102678484612051565b81939154921b1b19169055555b604051428152a3005b634e487b7160e01b60009081526031600452fd5b50505091945092507f780e35a35bfdc1e102755d77a01e3c49f83d233e1bbfafe8e8117cb802926df49150610274565b87634e487b7160e01b60005260116004526000fd5b60405162461bcd60e51b8152600481018490526025818701527f446f63746f7220646f6573206e6f742063757272656e746c7920686176652061604482015264636365737360d81b6064820152608490fd5b6103489150853d871161034e575b6103408183611fb0565b81019061207f565b38610143565b503d610336565b6040513d6000823e3d90fd5b600080fd5b34610361576101a036600319011261036157602480356001600160401b03811161036157610398903690600401611f83565b9061018052610120526064356001600160401b038111610361576103c0903690600401611f83565b6101405260e0526084356001600160401b038111610361576103e6903690600401611f83565b60a4356001600160401b03811161036157610405903690600401611f83565b9060c4356001600160401b03811161036157610425903690600401611f83565b610160529160e4356001600160401b03811161036157610449903690600401611f83565b949091610104356001600160401b0381116103615761046c903690600401611f83565b610124356001600160401b0381116103615761048c903690600401611f83565b9490956001600160401b036101443511610361576104b03661014435600401611f83565b608052610100526001600160401b036101643511610361576104d83661016435600401611f83565b9a909b6001600160401b036101843511610361576104fc3661018435600401611f83565b60a0529a600435156116f15761012051156116ad57610140511561167457821561163c5785156116045788156115cd57600f600054101561158957600435600052600160205260ff600a604060002001541661154557604051948560c052856101608101106001600160401b0361016088011117611530576106229b610613996105d86105f8956105e6948a6101606106059c0160405260043590526105a9366101205161018051611fd1565b602060c0510152604435604060c05101526105ca366101405160e051611fd1565b606060c05101523691611fd1565b608060c05101523691611fd1565b60c05160a00152610160513691611fd1565b60c0805101523691611fd1565b60e060c05101523691611fd1565b61010060c05101523691611fd1565b61012060c0510152600161014060c051015260043560005260016020526040600020602060c0518051835501518051906001600160401b038211610f6b57819061066f6001850154612017565b601f81116114dd575b50602090601f831160011461146b57600092611460575b50508160011b916000199060031b1c19161760018201555b606060c0516040810151600284015501518051906001600160401b038211610f6b5781906106d86003850154612017565b601f811161140d575b50602090601f831160011461139b57600092611390575b50508160011b916000199060031b1c19161760038201555b608060c05101518051906001600160401b038211610f6b5781906107376004850154612017565b601f811161133d575b50602090601f83116001146112cb576000926112c0575b50508160011b916000199060031b1c19161760048201555b60a060c05101518051906001600160401b038211610f6b5781906107966005850154612017565b601f811161126d575b50602090601f83116001146111fb576000926111f0575b50508160011b916000199060031b1c19161760058201555b60c0805101518051906001600160401b038211610f6b5781906107f46006850154612017565b601f811161119d575b50602090601f831160011461112b57600092611120575b50508160011b916000199060031b1c19161760068201555b60e060c05101518051906001600160401b038211610f6b5781906108536007850154612017565b601f81116110cd575b50602090601f831160011461105b57600092611050575b50508160011b916000199060031b1c19161760078201555b61010060c05101518051906001600160401b038211610f6b5781906108b36008850154612017565b601f8111610ffd575b50602090601f8311600114610f8b57600092610f80575b50508160011b916000199060031b1c19161760088201555b61012060c05101518051906001600160401b038211610f6b576109116009840154612017565b601f8111610f24575b50602090601f8311600114610eb157600a93929160009183610ea6575b50508160011b916000199060031b1c19161760098201555b0161014060c0510151151560ff801983541691161790556040519260608401908482106001600160401b03831117610e91576109b4936109a59260405261099c3660805161010051611fd1565b86523691611fd1565b602084015260a0513691611fd1565b6040820152600435600052600260205260406000209181519283516001600160401b038111610e7c576109e78254612017565b601f8111610e38575b506020601f8211600114610dcf578192939495600092610dc4575b50508160011b916000199060031b1c19161781555b60208301519283516001600160401b038111610cea57610a436001840154612017565b601f8111610d7d575b506020601f8211600114610d0a5781906040949596600092610cff575b50508160011b916000199060031b1c19161760018401555b01518051906001600160401b038211610cea57610aa16002840154612017565b601f8111610c9f575b50602090601f8311600114610c31576002929160009183610c26575b50508160011b916000199060031b1c1916179101555b60043560005260036020526040600020336bffffffffffffffffffffffff60a01b8254161790553360005260046020526040600020805415610c1b575b50600754600160401b811015610c06576001810180600755811015610bf1576007600052600435907fa66cc928b5edb82af9bd49922954155ab7b0942694bea4ce44661d9a8736c68801556000549060018201809211610bdd5750600055604051602081526101205160208201526101205161018051604083013760006040610120518301015233907fe960aa893775ad9187a8fc84e3a4750f46f677c7e4f410b0d77faad87596660360043591604081601f19601f6101205101168101030190a3005b634e487b7160e01b60009081526011600452fd5b50634e487b7160e01b60009081526032600452fd5b50634e487b7160e01b60009081526041600452fd5b600435905581610b19565b015190508580610ac6565b90601f198316916002850160005260206000209260005b818110610c8757509160019391856002969410610c6e575b505050811b01910155610adc565b015160001960f88460031b161c19169055858080610c60565b92936020600181928786015181550195019301610c48565b600284016000526020600020601f840160051c81019160208510610ce0575b601f0160051c01905b818110610cd45750610aaa565b60008155600101610cc7565b9091508190610cbe565b83634e487b7160e01b60005260416004526000fd5b015190508680610a69565b6001840160005260206000209560005b601f1984168110610d6557509582916040959697600194601f19811610610d4c575b505050811b016001840155610a81565b015160001960f88460031b161c19169055868080610d3c565b82820151885560019097019660209283019201610d1a565b600184016000526020600020601f830160051c810160208410610dbd575b601f830160051c82018110610db1575050610a4c565b60008155600101610d9b565b5080610d9b565b015190508580610a0b565b8260005260206000209060005b601f1984168110610e20575060019394959683601f19811610610e07575b505050811b018155610a20565b015160001960f88460031b161c19169055858080610dfa565b9091602060018192858b015181550193019101610ddc565b826000526020600020601f830160051c810160208410610e75575b601f830160051c82018110610e695750506109f0565b60008155600101610e53565b5080610e53565b82634e487b7160e01b60005260416004526000fd5b85634e487b7160e01b60005260416004526000fd5b015190508880610937565b906009840160005260206000209160005b601f1985168110610f0c5750918391600193600a9695601f19811610610ef3575b505050811b01600982015561094f565b015160001960f88460031b161c19169055888080610ee3565b91926020600181928685015181550194019201610ec2565b600984016000526020600020601f840160051c810160208510610f64575b601f830160051c82018110610f5857505061091a565b60008155600101610f42565b5080610f42565b86634e487b7160e01b60005260416004526000fd5b0151905087806108d3565b9250600884016000526020600020906000935b601f1984168510610fe2576001945083601f19811610610fc9575b505050811b0160088201556108eb565b015160001960f88460031b161c19169055878080610fb9565b81810151835560209485019460019093019290910190610f9e565b909150600884016000526020600020601f840160051c810160208510611049575b90849392915b601f830160051c8201811061103a5750506108bc565b60008155859450600101611024565b508061101e565b015190508780610873565b9250600784016000526020600020906000935b601f19841685106110b2576001945083601f19811610611099575b505050811b01600782015561088b565b015160001960f88460031b161c19169055878080611089565b8181015183556020948501946001909301929091019061106e565b909150600784016000526020600020601f840160051c810160208510611119575b90849392915b601f830160051c8201811061110a57505061085c565b600081558594506001016110f4565b50806110ee565b015190508780610814565b9250600684016000526020600020906000935b601f1984168510611182576001945083601f19811610611169575b505050811b01600682015561082c565b015160001960f88460031b161c19169055878080611159565b8181015183556020948501946001909301929091019061113e565b909150600684016000526020600020601f840160051c8101602085106111e9575b90849392915b601f830160051c820181106111da5750506107fd565b600081558594506001016111c4565b50806111be565b0151905087806107b6565b9250600584016000526020600020906000935b601f1984168510611252576001945083601f19811610611239575b505050811b0160058201556107ce565b015160001960f88460031b161c19169055878080611229565b8181015183556020948501946001909301929091019061120e565b909150600584016000526020600020601f840160051c8101602085106112b9575b90849392915b601f830160051c820181106112aa57505061079f565b60008155859450600101611294565b508061128e565b015190508780610757565b9250600484016000526020600020906000935b601f1984168510611322576001945083601f19811610611309575b505050811b01600482015561076f565b015160001960f88460031b161c191690558780806112f9565b818101518355602094850194600190930192909101906112de565b909150600484016000526020600020601f840160051c810160208510611389575b90849392915b601f830160051c8201811061137a575050610740565b60008155859450600101611364565b508061135e565b0151905087806106f8565b9250600384016000526020600020906000935b601f19841685106113f2576001945083601f198116106113d9575b505050811b016003820155610710565b015160001960f88460031b161c191690558780806113c9565b818101518355602094850194600190930192909101906113ae565b909150600384016000526020600020601f840160051c810160208510611459575b90849392915b601f830160051c8201811061144a5750506106e1565b60008155859450600101611434565b508061142e565b01519050878061068f565b9250600184016000526020600020906000935b601f19841685106114c2576001945083601f198116106114a9575b505050811b0160018201556106a7565b015160001960f88460031b161c19169055878080611499565b8181015183556020948501946001909301929091019061147e565b909150600184016000526020600020601f840160051c810160208510611529575b90849392915b601f830160051c8201811061151a575050610678565b60008155859450600101611504565b50806114fe565b8f634e487b7160e01b60005260416004526000fd5b60648f601a6040519162461bcd60e51b8352602060048401528201527f50617469656e7420616c726561647920726567697374657265640000000000006044820152fd5b60648f601b6040519162461bcd60e51b8352602060048401528201527f4d6178696d756d2031352070617469656e747320616c6c6f77656400000000006044820152fd5b60648f60106040519162461bcd60e51b8352602060048401528201526f11185d19481a5cc81c995c5d5a5c995960821b6044820152fd5b60648f60116040519162461bcd60e51b83526020600484015282015270115b585a5b081a5cc81c995c5d5a5c9959607a1b6044820152fd5b60648f60116040519162461bcd60e51b83526020600484015282015270141a1bdb99481a5cc81c995c5d5a5c9959607a1b6044820152fd5b60648f60126040519162461bcd60e51b8352602060048401528201527111d95b99195c881a5cc81c995c5d5a5c995960721b6044820152fd5b60648f60186040519162461bcd60e51b8352602060048401528201527f50617469656e74206e616d6520697320726571756972656400000000000000006044820152fd5b60848f6040519062461bcd60e51b825260206004830152808201527f50617469656e74204944206d7573742062652067726561746572207468616e206044820152637a65726f60e01b6064820152fd5b346103615760208060031936011261036157600435806000526003825261177660018060a01b0360406000205416331461213d565b60005260068152604060002090604051908181845491828152019360005281600020916000905b8282106117c4576117c0856117b481890382611fb0565b60405191829182611f48565b0390f35b83548652948501946001938401939091019061179d565b34610361576000366003190112610361576040517f00000000000000000000000000000000000000000000000000000000000000006001600160a01b03168152602090f35b3461036157600036600319011261036157604051806007549182815260208091019260076000527fa66cc928b5edb82af9bd49922954155ab7b0942694bea4ce44661d9a8736c688916000905b828210611884576117c0856117b481890382611fb0565b83548652948501946001938401939091019061186d565b34610361576000366003190112610361576020604051600f8152f35b34610361576000366003190112610361576020600054604051908152f35b34610361576118e336611f32565b906000526005602052604060002090600052602052602060ff604060002054166040519015158152f35b34610361576020366003190112610361576004356001600160a01b038116908190036103615760005260046020526020604060002054604051908152f35b34610361576020366003190112610361576004356000526003602052602060018060a01b0360406000205416604051908152f35b346103615761198d36611f32565b908060005260206003815260248160018060a01b036119b48160406000205416331461213d565b60405192838092632fd338d360e01b82528860048301527f0000000000000000000000000000000000000000000000000000000000000000165afa801561035557611a0691600091611ae5575061219b565b8160005260058152604060002083600052815260ff6040600020541615611a53575b7f2faac90f5434aef32f5b0ff5b333f37051f5b671f12a52ebae64f2ef8ac1393990604051428152a3005b816000526005815260406000208360005281526040600020600160ff198254161790558160005260068152604060002090815491600160401b831015611acf578461021384611ac89360017f2faac90f5434aef32f5b0ff5b333f37051f5b671f12a52ebae64f2ef8ac1393997018155612051565b9050611a28565b634e487b7160e01b600052604160045260246000fd5b611afc9150833d851161034e576103408183611fb0565b85610143565b34610361576040366003190112610361576001600160a01b036024358181169081900361036157602091600435600052600383526040600020541614604051908152f35b3461036157602036600319011261036157600435806000526001602052604060002060ff600a8201541615611e895781600052600360205260018060a01b039182604060002054163314837f00000000000000000000000000000000000000000000000000000000000000001660405190637d53cd3160e01b8252336004830152602082602481845afa91821561035557600092611e55575b508115159182611e00575b50508115611df8575b5015611d8d576000526002602052604060002081546002830154936003602052604060002054169160018401611c2890612097565b93611c3560038201612097565b90611c4260048201612097565b90611c4f60058201612097565b611c5b60068301612097565b611c6760078401612097565b91611c7460088501612097565b93600901611c8190612097565b94611c8b88612097565b96611c9860018a01612097565b98600201611ca590612097565b996040519d8e9d8e9283526101e08060208501528301611cc491611ef2565b91604001528c8082039060600152611cdb91611ef2565b8b810360808d0152611cec91611ef2565b8a810360a08c0152611cfd91611ef2565b89810360c08b0152611d0e91611ef2565b88810360e08a0152611d1f91611ef2565b878103610100890152611d3191611ef2565b868103610120880152611d4391611ef2565b858103610140870152611d5591611ef2565b848103610160860152611d6791611ef2565b838103610180850152611d7991611ef2565b906101a08301526101c08201600190520390f35b60405162461bcd60e51b815260206004820152603860248201527f4f6e6c792070617469656e74206f776e6572206f72207265676973746572656460448201527f20646f63746f722063616e20766965772070617469656e7400000000000000006064820152608490fd5b905084611bf3565b6020919250602460405180948193632fd338d360e01b835260048301525afa90811561035557600091611e36575b508580611bea565b611e4f915060203d60201161034e576103408183611fb0565b85611e2e565b9091506020813d602011611e81575b81611e7160209383611fb0565b8101031261036157519086611bdf565b3d9150611e64565b60405162461bcd60e51b815260206004820152601160248201527014185d1a595b9d081b9bdd08199bdd5b99607a1b6044820152606490fd5b34610361576020366003190112610361576020906004356000526001825260ff600a604060002001541615158152f35b919082519283825260005b848110611f1e575050826000602080949584010152601f8019910116010190565b602081830181015184830182015201611efd565b6040906003190112610361576004359060243590565b6020908160408183019282815285518094520193019160005b828110611f6f575050505090565b835185529381019392810192600101611f61565b9181601f84011215610361578235916001600160401b038311610361576020838186019501011161036157565b90601f801991011681019081106001600160401b03821117611acf57604052565b9291926001600160401b038211611acf5760405191611ffa601f8201601f191660200184611fb0565b829481845281830111610361578281602093846000960137010152565b90600182811c92168015612047575b602083101461203157565b634e487b7160e01b600052602260045260246000fd5b91607f1691612026565b80548210156120695760005260206000200190600090565b634e487b7160e01b600052603260045260246000fd5b90816020910312610361575180151581036103615790565b90604051918260008254926120ab84612017565b90818452600194858116908160001461211a57506001146120d7575b50506120d592500383611fb0565b565b9093915060005260209081600020936000915b8183106121025750506120d5935082010138806120c7565b855488840185015294850194879450918301916120ea565b9150506120d594506020925060ff191682840152151560051b82010138806120c7565b1561214457565b60405162461bcd60e51b815260206004820152602960248201527f4f6e6c792070617469656e74206f776e65722063616e2063616c6c207468697360448201526810333ab731ba34b7b760b91b6064820152608490fd5b156121a257565b60405162461bcd60e51b8152602060048201526015602482015274111bd8dd1bdc881b9bdd081c9959da5cdd195c9959605a1b6044820152606490fdfea2646970667358221220167674df40a7e53dab7fda6f5195ba4634ac8b6899632ad0f3c09ce6f346bcaa64736f6c63430008130033",
  "immutableReferences": {
    "1595": [
      {
        "length": 32,
        "start": 271
      },
      {
        "length": 32,
        "start": 6129
      },
      {
        "length": 32,
        "start": 6605
      },
      {
        "length": 32,
        "start": 7059
      }
    ]
  },
  "source": "// SPDX-License-Identifier: MIT\r\npragma solidity ^0.8.19;\r\n\r\ninterface IDoctorDirectory {\r\n    function isDoctorRegistered(uint256 _doctorId) external view returns (bool);\r\n    function getDoctorIdByWallet(address _wallet) external view returns (uint256);\r\n}\r\n\r\ncontract Patient {\r\n    IDoctorDirectory public immutable doctorContract;\r\n    uint256 public patientCount;\r\n    uint256 public constant MAX_PATIENTS = 15;\r\n\r\n    struct Attendant {\r\n        string name;\r\n        string relation;\r\n        string phone;\r\n    }\r\n\r\n    struct PatientInfo {\r\n        uint256 patientId;\r\n        string name;\r\n        uint256 age;\r\n        string gender;\r\n        string height;\r\n        string weight;\r\n        string homeAddress;\r\n        string phone;\r\n        string email;\r\n        string registrationDate;\r\n        bool exists;\r\n    }\r\n\r\n    mapping(uint256 => PatientInfo) private patients;\r\n    mapping(uint256 => Attendant) private attendants;\r\n    mapping(uint256 => address) public patientOwnerById;\r\n    mapping(address => uint256) public patientIdByWallet;\r\n\r\n    mapping(uint256 => mapping(uint256 => bool)) private accessByPatientDoctor;\r\n    mapping(uint256 => uint256[]) private doctorsWithAccess;\r\n\r\n    uint256[] private patientIds;\r\n\r\n    event PatientRegistered(uint256 indexed patientId, address indexed ownerWallet, string name);\r\n    event AccessGranted(uint256 indexed patientId, uint256 indexed doctorId, uint256 timestamp);\r\n    event AccessRevoked(uint256 indexed patientId, uint256 indexed doctorId, uint256 timestamp);\r\n\r\n    modifier onlyPatientOwner(uint256 _patientId) {\r\n        require(patientOwnerById[_patientId] == msg.sender, \"Only patient owner can call this function\");\r\n        _;\r\n    }\r\n\r\n    /// @notice Sets the doctor contract address for doctor existence and wallet checks.\r\n    constructor(address _doctorContractAddress) {\r\n        require(_doctorContractAddress != address(0), \"Doctor contract address is required\");\r\n        doctorContract = IDoctorDirectory(_doctorContractAddress);\r\n    }\r\n\r\n    /// @notice Registers a patient with full details and attendant data.\r\n    /// @dev Registration is limited to 15 demo patients and binds patient ID to caller wallet.\r\n    function registerPatient(\r\n        uint256 _patientId,\r\n        string calldata _name,\r\n        uint256 _age,\r\n        string calldata _gender,\r\n        string calldata _height,\r\n        string calldata _weight,\r\n        string calldata _homeAddress,\r\n        string calldata _phone,\r\n        string calldata _email,\r\n        string calldata _date,\r\n        string calldata _attendantName,\r\n        string calldata _attendantRelation,\r\n        string calldata _attendantPhone\r\n    ) external {\r\n        require(_patientId > 0, \"Patient ID must be greater than zero\");\r\n        require(bytes(_name).length > 0, \"Patient name is required\");\r\n        require(bytes(_gender).length > 0, \"Gender is required\");\r\n        require(bytes(_phone).length > 0, \"Phone is required\");\r\n        require(bytes(_email).length > 0, \"Email is required\");\r\n        require(bytes(_date).length > 0, \"Date is required\");\r\n        require(patientCount < MAX_PATIENTS, \"Maximum 15 patients allowed\");\r\n        require(!patients[_patientId].exists, \"Patient already registered\");\r\n\r\n        patients[_patientId] = PatientInfo({\r\n            patientId: _patientId,\r\n            name: _name,\r\n            age: _age,\r\n            gender: _gender,\r\n            height: _height,\r\n            weight: _weight,\r\n            homeAddress: _homeAddress,\r\n            phone: _phone,\r\n            email: _email,\r\n            registrationDate: _date,\r\n            exists: true\r\n        });\r\n\r\n        attendants[_patientId] = Attendant({\r\n            name: _attendantName,\r\n            relation: _attendantRelation,\r\n            phone: _attendantPhone\r\n        });\r\n\r\n        patientOwnerById[_patientId] = msg.sender;\r\n        if (patientIdByWallet[msg.sender] == 0) {\r\n            patientIdByWallet[msg.sender] = _patientId;\r\n        }\r\n        patientIds.push(_patientId);\r\n        patientCount += 1;\r\n\r\n        emit PatientRegistered(_patientId, msg.sender, _name);\r\n    }\r\n\r\n    /// @notice Returns full patient and attendant details by patient ID.\r\n    /// @dev Accessible only by patient-owner wallet or a registered doctor wallet.\r\n    function getPatientDetails(\r\n        uint256 _patientId\r\n    )\r\n        external\r\n        view\r\n        returns (\r\n            uint256 patientId,\r\n            string memory name,\r\n            uint256 age,\r\n            string memory gender,\r\n            string memory height,\r\n            string memory weight,\r\n            string memory homeAddress,\r\n            string memory phone,\r\n            string memory email,\r\n            string memory date,\r\n            string memory attendantName,\r\n            string memory attendantRelation,\r\n            string memory attendantPhone,\r\n            address ownerWallet,\r\n            bool exists\r\n        )\r\n    {\r\n        PatientInfo storage patient = patients[_patientId];\r\n        require(patient.exists, \"Patient not found\");\r\n\r\n        bool isOwner = patientOwnerById[_patientId] == msg.sender;\r\n        uint256 viewerDoctorId = doctorContract.getDoctorIdByWallet(msg.sender);\r\n        bool isDoctor = viewerDoctorId > 0 && doctorContract.isDoctorRegistered(viewerDoctorId);\r\n\r\n        require(isOwner || isDoctor, \"Only patient owner or registered doctor can view patient\");\r\n\r\n        Attendant storage attendant = attendants[_patientId];\r\n\r\n        return (\r\n            patient.patientId,\r\n            patient.name,\r\n            patient.age,\r\n            patient.gender,\r\n            patient.height,\r\n            patient.weight,\r\n            patient.homeAddress,\r\n            patient.phone,\r\n            patient.email,\r\n            patient.registrationDate,\r\n            attendant.name,\r\n            attendant.relation,\r\n            attendant.phone,\r\n            patientOwnerById[_patientId],\r\n            patient.exists\r\n        );\r\n    }\r\n\r\n    /// @notice Grants record access for one doctor to one patient.\r\n    /// @dev Only patient-owner wallet can grant access.\r\n    function grantAccess(uint256 _patientId, uint256 _doctorId) external onlyPatientOwner(_patientId) {\r\n        require(doctorContract.isDoctorRegistered(_doctorId), \"Doctor not registered\");\r\n\r\n        if (!accessByPatientDoctor[_patientId][_doctorId]) {\r\n            accessByPatientDoctor[_patientId][_doctorId] = true;\r\n            doctorsWithAccess[_patientId].push(_doctorId);\r\n        }\r\n\r\n        emit AccessGranted(_patientId, _doctorId, block.timestamp);\r\n    }\r\n\r\n    /// @notice Revokes record access for one doctor from one patient.\r\n    /// @dev Only patient-owner wallet can revoke access.\r\n    function revokeAccess(uint256 _patientId, uint256 _doctorId) external onlyPatientOwner(_patientId) {\r\n        require(doctorContract.isDoctorRegistered(_doctorId), \"Doctor not registered\");\r\n        require(accessByPatientDoctor[_patientId][_doctorId], \"Doctor does not currently have access\");\r\n\r\n        accessByPatientDoctor[_patientId][_doctorId] = false;\r\n\r\n        uint256[] storage allowedDoctors = doctorsWithAccess[_patientId];\r\n        uint256 lastIndex = allowedDoctors.length - 1;\r\n\r\n        for (uint256 i = 0; i < allowedDoctors.length; i++) {\r\n            if (allowedDoctors[i] == _doctorId) {\r\n                allowedDoctors[i] = allowedDoctors[lastIndex];\r\n                allowedDoctors.pop();\r\n                break;\r\n            }\r\n        }\r\n\r\n        emit AccessRevoked(_patientId, _doctorId, block.timestamp);\r\n    }\r\n\r\n    /// @notice Checks if a doctor currently has access to a patient's records.\r\n    function hasAccess(uint256 _patientId, uint256 _doctorId) external view returns (bool) {\r\n        return accessByPatientDoctor[_patientId][_doctorId];\r\n    }\r\n\r\n    /// @notice Returns all doctor IDs currently allowed by the patient.\r\n    /// @dev Used in dashboard access-control table.\r\n    function getDoctorsWithAccess(uint256 _patientId) external view onlyPatientOwner(_patientId) returns (uint256[] memory) {\r\n        return doctorsWithAccess[_patientId];\r\n    }\r\n\r\n    /// @notice Checks if wallet address is owner of the given patient profile.\r\n    function isPatientOwner(uint256 _patientId, address _wallet) external view returns (bool) {\r\n        return patientOwnerById[_patientId] == _wallet;\r\n    }\r\n\r\n    /// @notice Returns all patient IDs for reporting/demo tooling.\r\n    function getAllPatientIds() external view returns (uint256[] memory) {\r\n        return patientIds;\r\n    }\r\n\r\n    /// @notice Checks whether a patient ID has already been registered.\r\n    function isPatientRegistered(uint256 _patientId) external view returns (bool) {\r\n        return patients[_patientId].exists;\r\n    }\r\n}\r\n",
  "sourcePath": "C:\\Users\\baala\\OneDrive\\Desktop\\cyber - 2\\healthcare-blockchain\\contracts\\Patient.sol",
  "compiler": {
    "name": "solc",
    "version": "0.8.19+commit.7dd6d404.Emscripten.clang"
  },
  "schemaVersion": "3.4.16",
  "updatedAt": "2026-04-08T18:38:54.237Z",
  "networkType": "ethereum",
  "devdoc": {
    "kind": "dev",
    "methods": {
      "getDoctorsWithAccess(uint256)": {
        "details": "Used in dashboard access-control table."
      },
      "getPatientDetails(uint256)": {
        "details": "Accessible only by patient-owner wallet or a registered doctor wallet."
      },
      "grantAccess(uint256,uint256)": {
        "details": "Only patient-owner wallet can grant access."
      },
      "registerPatient(uint256,string,uint256,string,string,string,string,string,string,string,string,string,string)": {
        "details": "Registration is limited to 15 demo patients and binds patient ID to caller wallet."
      },
      "revokeAccess(uint256,uint256)": {
        "details": "Only patient-owner wallet can revoke access."
      }
    },
    "version": 1
  },
  "userdoc": {
    "kind": "user",
    "methods": {
      "constructor": {
        "notice": "Sets the doctor contract address for doctor existence and wallet checks."
      },
      "getAllPatientIds()": {
        "notice": "Returns all patient IDs for reporting/demo tooling."
      },
      "getDoctorsWithAccess(uint256)": {
        "notice": "Returns all doctor IDs currently allowed by the patient."
      },
      "getPatientDetails(uint256)": {
        "notice": "Returns full patient and attendant details by patient ID."
      },
      "grantAccess(uint256,uint256)": {
        "notice": "Grants record access for one doctor to one patient."
      },
      "hasAccess(uint256,uint256)": {
        "notice": "Checks if a doctor currently has access to a patient's records."
      },
      "isPatientOwner(uint256,address)": {
        "notice": "Checks if wallet address is owner of the given patient profile."
      },
      "isPatientRegistered(uint256)": {
        "notice": "Checks whether a patient ID has already been registered."
      },
      "registerPatient(uint256,string,uint256,string,string,string,string,string,string,string,string,string,string)": {
        "notice": "Registers a patient with full details and attendant data."
      },
      "revokeAccess(uint256,uint256)": {
        "notice": "Revokes record access for one doctor from one patient."
      }
    },
    "version": 1
  }
}